{
  "_format": "hh-sol-artifact-1",
  "contractName": "Poster",
  "sourceName": "contracts/Poster.sol",
  "abi": [
    {
      "anonymous": false,
      "inputs": [
        {
          "indexed": true,
          "internalType": "address",
          "name": "user",
          "type": "address"
        },
        {
          "indexed": true,
          "internalType": "bytes32",
          "name": "tag",
          "type": "bytes32"
        },
        {
          "indexed": false,
          "internalType": "string",
          "name": "content",
          "type": "string"
        }
      ],
      "name": "NewPost",
      "type": "event"
    },
    {
      "inputs": [],
      "name": "init",
      "outputs": [],
      "stateMutability": "nonpayable",
      "type": "function"
    },
    {
      "inputs": [
        {
          "internalType": "address",
          "name": "forwarder",
          "type": "address"
        }
      ],
      "name": "isTrustedForwarder",
      "outputs": [
        {
          "internalType": "bool",
          "name": "",
          "type": "bool"
        }
      ],
      "stateMutability": "view",
      "type": "function"
    },
    {
      "inputs": [
        {
          "internalType": "string",
          "name": "content",
          "type": "string"
        },
        {
          "internalType": "bytes32",
          "name": "tag",
          "type": "bytes32"
        }
      ],
      "name": "post",
      "outputs": [],
      "stateMutability": "payable",
      "type": "function"
    },
    {
      "inputs": [],
      "name": "trustedForwarder",
      "outputs": [
        {
          "internalType": "address",
          "name": "",
          "type": "address"
        }
      ],
      "stateMutability": "view",
      "type": "function"
    },
    {
      "inputs": [],
      "name": "versionRecipient",
      "outputs": [
        {
          "internalType": "string",
          "name": "",
          "type": "string"
        }
      ],
      "stateMutability": "view",
      "type": "function"
    }
  ],
  "bytecode": "0x60c060405260056080819052640322e322e360dc1b60a09081526100269160019190610039565b5034801561003357600080fd5b506100da565b828054600181600116156101000203166002900490600052602060002090601f01602090048101928261006f57600085556100b5565b82601f1061008857805160ff19168380011785556100b5565b828001600101855582156100b5579182015b828111156100b557825182559160200191906001019061009a565b506100c19291506100c5565b5090565b5b808211156100c157600081556001016100c6565b610451806100e96000396000f3fe60806040526004361061005a5760003560e01c80637da0a877116100435780637da0a8771461013d578063a4e722051461017b578063e1c7392a146101ed5761005a565b8063486ff0cd1461005f578063572b6c05146100e9575b600080fd5b34801561006b57600080fd5b50610074610202565b6040805160208082528351818301528351919283929083019185019080838360005b838110156100ae578181015183820152602001610096565b50505050905090810190601f1680156100db5780820380516001836020036101000a031916815260200191505b509250505060405180910390f35b3480156100f557600080fd5b506101296004803603602081101561010c57600080fd5b503573ffffffffffffffffffffffffffffffffffffffff166102ad565b604080519115158252519081900360200190f35b34801561014957600080fd5b506101526102ce565b6040805173ffffffffffffffffffffffffffffffffffffffff9092168252519081900360200190f35b6101eb6004803603604081101561019157600080fd5b8101906020810181356401000000008111156101ac57600080fd5b8201836020820111156101be57600080fd5b803590602001918460018302840111640100000000831117156101e057600080fd5b9193509150356102ea565b005b3480156101f957600080fd5b506101eb61038c565b60018054604080516020600284861615610100027fffffffffffffffffffffffffffffffffffffffffffffffffffffffffffffffff0190941693909304601f810184900484028201840190925281815292918301828280156102a55780601f1061027a576101008083540402835291602001916102a5565b820191906000526020600020905b81548152906001019060200180831161028857829003601f168201915b505050505081565b60005473ffffffffffffffffffffffffffffffffffffffff90811691161490565b60005473ffffffffffffffffffffffffffffffffffffffff1681565b806102f36103cc565b73ffffffffffffffffffffffffffffffffffffffff167f197ddbb7db9fcf7aea1d6364178bee5c6cbe37dcc071d697f71f5b9feb4dbc9b858560405180806020018281038252848482818152602001925080828437600083820152604051601f9091017fffffffffffffffffffffffffffffffffffffffffffffffffffffffffffffffe0169092018290039550909350505050a3505050565b600080547fffffffffffffffffffffffff00000000000000000000000000000000000000001673d216153c06e857cd7f72665e0af1d7d82172f494179055565b6000601436108015906103e357506103e3336102ad565b1561041557507fffffffffffffffffffffffffffffffffffffffffffffffffffffffffffffffec36013560601c610418565b50335b9056fea2646970667358221220a9d4c223aa18a2f314761dbf95dd0f03dfb4d996a4f4de4226186ebd9d2b168464736f6c63430007060033",
  "linkReferences": {},
  "deployedLinkReferences": {}
}