{
  "_format": "hh-sol-artifact-1",
  "contractName": "Poster",
  "sourceName": "contracts/Poster.sol",
  "abi": [
    {
      "anonymous": false,
      "inputs": [
        {
          "indexed": true,
          "internalType": "bytes32",
          "name": "id",
          "type": "bytes32"
        },
        {
          "indexed": true,
          "internalType": "address",
          "name": "user",
          "type": "address"
        },
        {
          "indexed": false,
          "internalType": "string",
          "name": "content",
          "type": "string"
        }
      ],
      "name": "NewPost",
      "type": "event"
    },
    {
      "inputs": [
        {
          "internalType": "string",
          "name": "content",
          "type": "string"
        }
      ],
      "name": "post",
      "outputs": [],
      "stateMutability": "nonpayable",
      "type": "function"
    }
  ],
  "bytecode": "0x608060405234801561001057600080fd5b506103fc806100206000396000f3fe608060405234801561001057600080fd5b506004361061002b5760003560e01c80638ee93cf314610030575b600080fd5b61004a60048036038101906100459190610138565b61004c565b005b60003346435a60405160200161006594939291906101e0565b6040516020818303038152906040528051906020012090503373ffffffffffffffffffffffffffffffffffffffff16817fa9b346a628e93de9d9ee1638ee2724d9ebdb3043aceb8bc7ad8bd5b63e522970846040516100c4919061022e565b60405180910390a35050565b60006100e36100de84610281565b610250565b9050828152602081018484840111156100fb57600080fd5b610106848285610309565b509392505050565b600082601f83011261011f57600080fd5b813561012f8482602086016100d0565b91505092915050565b60006020828403121561014a57600080fd5b600082013567ffffffffffffffff81111561016457600080fd5b6101708482850161010e565b91505092915050565b61018a610185826102cd565b61034b565b82525050565b600061019b826102b1565b6101a581856102bc565b93506101b5818560208601610318565b6101be816103a8565b840191505092915050565b6101da6101d5826102ff565b61036f565b82525050565b60006101ec8287610179565b6014820191506101fc82866101c9565b60208201915061020c82856101c9565b60208201915061021c82846101c9565b60208201915081905095945050505050565b600060208201905081810360008301526102488184610190565b905092915050565b6000604051905081810181811067ffffffffffffffff8211171561027757610276610379565b5b8060405250919050565b600067ffffffffffffffff82111561029c5761029b610379565b5b601f19601f8301169050602081019050919050565b600081519050919050565b600082825260208201905092915050565b60006102d8826102df565b9050919050565b600073ffffffffffffffffffffffffffffffffffffffff82169050919050565b6000819050919050565b82818337600083830152505050565b60005b8381101561033657808201518184015260208101905061031b565b83811115610345576000848401525b50505050565b60006103568261035d565b9050919050565b6000610368826103b9565b9050919050565b6000819050919050565b7f4e487b7100000000000000000000000000000000000000000000000000000000600052604160045260246000fd5b6000601f19601f8301169050919050565b60008160601b905091905056fea26469706673582212204a1471d7f62161d5b65c83000a6fc18b1cd581784ea4018de0ecbbf0b2a4f6aa64736f6c63430008000033",
  "linkReferences": {},
  "deployedLinkReferences": {}
}